:100000000C9462000C948A000C948A000C948A0070
:100010000C948A000C948A000C948A000C948A0038
:100020000C948A000C948A000C948A000C948A0028
:100030000C948A000C948A000C948A000C948A0018
:100040000C94AD0B0C948A000C941D0C0C94F70BC3
:100050000C948A000C948A000C948A000C948A00F8
:100060000C944F0C0C948A00000000002400270020
:100070002A0000000000250028002B0000000008D6
:10008000000201000003040700000000000000005F
:1000900000000000230026002900040404040404D6
:1000A0000404020202020202030303030303010227
:1000B00004081020408001020408102001020408F6
:1000C00010206E0D11241FBECFEFD8E0DEBFCDBFD4
:1000D00023E0AEEBB1E001C01D92AE34B207E1F710
:1000E00011E0A0E0B1E0ECE3FCE202C005900D926B
:1000F000AE3BB107D9F710E0C2E6D0E004C02197CB
:10010000FE010E94FC13C136D107C9F70E94D50D2C
:100110000C941C160C940000CF92DF92EF92FF9289
:10012000CF93DF93B0913203A0E08111AB2F809188
:10013000330390E0880F991FAC0140575F4FC09088
:100140003803D0903903E0903A03F0903B0330E05D
:1001500020E0FA01C591D491E881B90190E080E0F6
:10016000EB23EA130AC02F5F3F4F6C157D058E0508
:100170009F0578F36FEF7FEFCB01DF91CF91FF9079
:10018000EF90DF90CF90089590E0FC01E458FF4F8E
:100190002491FC01E255FF4F3491FC01E656FF4FDC
:1001A000E491EE23C9F0222339F0233001F1A8F4C1
:1001B000213019F1223029F1F0E0EE0FFF1FEE5847
:1001C000FF4FA591B4918FB7F894EC91611126C0BF
:1001D00030953E233C938FBF08952730A9F02830F7
:1001E000C9F0243049F7809180008F7D03C0809151
:1001F00080008F7780938000DFCF84B58F7784BDB8
:10020000DBCF84B58F7DFBCF8091B0008F7780935B
:10021000B000D2CF8091B0008F7DF9CF3E2BDACFE6
:10022000CF93DF9390E0FC01E255FF4F2491865677
:100230009F4FFC0184918823D1F090E0880F991F93
:10024000FC01E859FF4FA591B491FC01EE58FF4F16
:10025000C591D491623071F49FB7F8943C91822F8C
:10026000809583238C93E8812E2B28839FBFDF9179
:10027000CF9108958FB7F894EC912E2B2C938FBFCC
:10028000F6CF3FB7F89480917E0290917F02A091C3
:100290008002B091810226B5A89B05C02F3F19F0BE
:1002A0000196A11DB11D3FBFBA2FA92F982F8827F6
:1002B000BC01CD01620F711D811D911D42E0660FD1
:1002C000771F881F991F4A95D1F708958F929F92A3
:1002D000AF92BF92CF92DF92EF92FF924B015C01FF
:1002E0000E9441016B017C010E9441016C197D0952
:1002F0008E099F09683E734081059105A8F321E0AE
:10030000821A9108A108B10888EEC80E83E0D81EB1
:10031000E11CF11C81149104A104B10429F7FF90A0
:10032000EF90DF90CF90BF90AF909F908F90089507
:100330002FB7F89460917A0270917B0280917C02D1
:1003400090917D022FBF0895CF92DF92EF92FF929E
:100350000F931F93CF93DF93CDB7DEB7C054D14037
:100360000FB6F894DEBF0FBECDBF0E94980100917A
:1003700034031091350320913603309137036B011C
:100380007C01C01AD10AE20AF30A97018601003DF6
:1003900017402105310590F480913C03C05CDE4F8D
:1003A0000FB6F894DEBF0FBECDBFDF91CF911F9186
:1003B0000F91FF90EF90DF90CF90089560933403FA
:1003C00070933503809336039093370310922F0375
:1003D00010922E0310922D0310922C0310922B03D7
:1003E00062E0809130030E94100161E070E080E0E3
:1003F00090E00E94660161E0809130030E9410014C
:1004000060E0809130030E94C400809131038551E7
:10041000823020F58BE291E10197F1F762E0809163
:1004200030030E94100180913D0390E082309105DD
:1004300038F0880F991F880F991F05970197F1F7DA
:10044000F89480E00E948C006F3F7F4F8F4F9F4F4A
:1004500061F410923C03789480E0A0CF64E170E0F6
:1004600080E090E00E946601D9CF81E00E948C007C
:100470006F3F7F4F8F4F9F4F61F38E010F5F1F4F75
:100480006E012FEBC21A2EEFD20A780180E00E9493
:100490008C00F701608371838283938381E00E94E3
:1004A0008C00F7016483758386839783F8E0EF0EF1
:1004B000F11CEC14FD0451F7789430E020E0F801D1
:1004C000C080D180E280F38044815581668177814C
:1004D000FFEFCF16DF06EF06FF0631F04F3F8FEF3D
:1004E00058076807780719F410923C03B5CFF90153
:1004F00083E0F595E7958A95E1F7E55DFC4F80810E
:10050000880FC416D506E606F70610F180832F5F24
:100510003F4F085F1F4F2832310589F640912F0366
:1005200020912B0380912C03280F3327331F8091B8
:100530002D03280F311D80912E03820F932F911DC3
:1005400099274817190681F681E080933C0326CF4E
:100550008160DCCFCF92DF92EF92FF92CF930E9427
:10056000A401882341F0809131038C3009F44FC0FD
:1005700038F48B30F1F060E070E080EC9FE741C030
:1005800085518230C0F7C0912D036C2F70E0762F1B
:10059000662766277F7780912E03682B90E080E0A6
:1005A0000E9469112DEC3CEC4CEC5DE30E94CA11F9
:1005B0004AC060912D0370E090E080E00E946911D4
:1005C0006B017C01C0912E03C7FF0AC0AC019B01E7
:1005D00060E070E080E89FEB0E94C2126B017C013A
:1005E000CF706C2F70E090E080E00E946B112DECDA
:1005F0003CEC4CEC5DE30E94CA11A70196010E94FD
:10060000C312CF91FF90EF90DF90CF900895C091EB
:100610002D036C2F70E090E080E00E9469116B0167
:100620007C0160912E036F7070E090E080E00E948A
:100630006B112DEC3CEC4CEC5DE30E94CA11A70160
:1006400096010E94C312C7FFDCCF9058DACF0895FD
:100650000895AF92BF92CF92DF92EF92FF920F93E5
:100660001F93CF93DF936C017B018B01040F151F48
:10067000EB015E01AE18BF08C017D10759F06991B0
:10068000D601ED91FC910190F081E02DC601099514
:10069000892B79F7C501DF91CF911F910F91FF90C1
:1006A000EF90DF90CF90BF90AF900895FC01538DF5
:1006B000448D252F30E0842F90E0821B930B54173C
:1006C00010F0CF96089501970895FC01918D828DC9
:1006D000981761F0A28DAE0FBF2FB11D5D968C9162
:1006E000928D9F5F9F73928F90E008958FEF9FEFA1
:1006F00008950F931F930E94980160938A0270934C
:100700008B0280938C0290938D0282E892E00E948B
:10071000650397FF1DC00E94980100918A02109105
:100720008B0220918C0230918D02601B710B820B29
:10073000930B0091860210918702209188023091DC
:1007400089026017710782079307F8F28FEF9FEF16
:100750001F910F910895FC01918D828D981731F0B2
:10076000828DE80FF11D858D90E008958FEF9FEF4A
:100770000895FC01918D228D892F90E0805C9F4F20
:10078000821B91098F739927089582E892E00E9455
:10079000B90321E0892B09F420E0822F089580E03D
:1007A00090E0892B29F00E94C50381110C94000070
:1007B0000895FC01A48DA80FB92FB11DA35ABF4FF6
:1007C0002C91848D90E001968F739927848FA68950
:1007D000B7892C93A089B1898C91837080648C93A4
:1007E000938D848D981306C00288F389E02D808153
:1007F0008F7D80830895EF92FF920F931F93CF9385
:10080000DF93EC0181E0888F9B8D8C8D98131AC04B
:10081000E889F989808185FF15C09FB7F894EE8932
:10082000FF896083E889F98980818370806480838F
:100830009FBF81E090E0DF91CF911F910F91FF90DA
:10084000EF900895F62E0B8D10E00F5F1F4F0F7382
:100850001127E02E8C8D8E110CC00FB607FCFACF3D
:10086000E889F989808185FFF5CFCE010E94D903FF
:10087000F1CFEB8DEC0FFD2FF11DE35AFF4FF0820E
:100880009FB7F8940B8FEA89FB8980818062CFCF74
:10089000CF93DF93EC01888D8823B9F0AA89BB89B7
:1008A000E889F9898C9185FD03C0808186FD0DC0A2
:1008B0000FB607FCF7CF8C9185FFF2CF808185FFC3
:1008C000EDCFCE010E94D903E9CFDF91CF910895FA
:1008D00008952091FF01260F3327331F2132310560
:1008E000ECF420914802FC0190E080E0243069F0B3
:1008F00082E00895A091FF012191AC0141525E4F29
:10090000A40FB52FB11D2C930196861798F38091F3
:10091000FF01680F6093FF0180E0089581E0089572
:100920001092480281E0809347021092220261E017
:1009300082E10E94C40061E083E10E94C400E9EB0F
:10094000F0E080818E7F808380818D7F808388E44A
:100950008093B80085E48093BC000895CF93DF9323
:1009600091E09093DE018823B9F0C091B800D09156
:10097000BA008091BC008A7B8093BC0060E082E179
:100980000E94C40060E083E10E94C4000E949004C1
:10099000D093BA00C093B800DF91CF910895089525
:1009A000E091770280917602E81730F4F0E0E254AB
:1009B000FE4F808190E008958FEF9FEF0895909112
:1009C0007702809176022FEF3FEF981748F4E92FD6
:1009D000F0E0E254FE4F208130E09F5F9093770279
:1009E000C90108958091760290917702891B990B35
:1009F0000895CF92DF92EF92FF920F931F93CF93C0
:100A0000DF937C01CB018A0120914E02222389F0E1
:100A1000EB016B01C40ED51ECC15DD0569F06991A3
:100A2000D701ED91FC910190F081E02DC70109956E
:100A3000F3CF642F0E946904C801DF91CF911F9109
:100A40000F91FF90EF90DF90CF900895CF93DF93B9
:100A50001F92CDB7DEB7698320914E022223F9F0B1
:100A600020917402203258F021E030E0FC01338301
:100A7000228390E080E00F90DF91CF9108958091E4
:100A80007502E82FF0E0E15BFD4F998190838F5F65
:100A9000809375028093740281E090E0ECCF61E076
:100AA000CE0101960E946904F7CFCF92DF92EF92B8
:100AB000FF920F931F93CF93DF93FC01C48121E03A
:100AC00020934E02C0936F0210927502109274022E
:100AD0008385682B8FE193E00E942605D0917402F4
:100AE000D13208F092C00E9441016B017C018091DB
:100AF0004802811165C082E08093480281E08093C2
:100B000047028FEF8093460210924502D093440231
:100B1000AFE4B2E0E4E2F2E080E0D81385C01092E6
:100B2000230280912302CC0FC82BC0932302809113
:100B30002202813009F07CC0109222020E94410101
:100B40006B017C01809123028093BB0080914A025B
:100B500090914B02A0914C02B0914D02892B8A2BAF
:100B60008B2B99F00E94410100914A0210914B0297
:100B700020914C0230914D026C197D098E099F091C
:100B80000617170728073907E0F18091BC0083FD9D
:100B9000D9CF85EC8093BC000E9441016B017C01A0
:100BA00080914802823009F445C0809146028F3F0F
:100BB00061F180914602803241F18091460225C068
:100BC00080914A0290914B02A0914C02B0914D024B
:100BD000892B8A2B8B2B09F48ACF0E94410100912B
:100BE0004A0210914B0220914C0230914D026C1937
:100BF0007D098E099F09061717072807390708F08E
:100C000076CF809149020E94AE0410927502109234
:100C1000740210924E02DF91CF911F910F91FF90BD
:100C2000EF90DF90CF9008959D9191938F5F75CF56
:100C300085EEB0CF80914A0290914B02A0914C0278
:100C4000B0914D02892B8A2B8B2B09F4A9CF0E94DE
:100C5000410100914A0210914B0220914C023091C7
:100C60004D026C197D098E099F0906171707280781
:100C7000390708F095CFC5CF90E080E00895CF9276
:100C8000DF92EF92FF92CF93DF930E94AA026B0153
:100C90007C01C0910001D0E0BE016F5F7F4F072E45
:100CA000000C880B990B0E946B119B01AC01C701D2
:100CB000B6010E94D01360E087FF12C0BE016150F0
:100CC0007109072E000C880B990B0E946B119B0178
:100CD000AC01C701B6010E946411181654F061E01E
:100CE0008DE0DF91CF91FF90EF90DF90CF900C944B
:100CF000C400DF91CF91FF90EF90DF90CF900895E7
:100D00000F931F93CF938C01C62F0E9455056C2F14
:100D10006460C8010E9455056C2F6B7FC8010E945A
:100D2000550583EC90E00197F1F7CF911F910F915A
:100D300008950F931F93CF93DF938C01D62FC42F69
:100D4000607F642B0E94800680E1D89FB00111244F
:100D50006C2BC801DF91CF911F910F910C948006ED
:100D6000CF93DF93CDB7DEB728970FB6F894DEBFE9
:100D70000FBECDBF98E0E7E0F1E0DE0111960190F3
:100D80000D929A95E1F790914603961710F46FEF44
:100D9000690F262F30E0220F331F41E050E04C0F47
:100DA0005D1F240F351FF9016081680F606840E006
:100DB0008EE393E028960FB6F894DEBF0FBECDBF4A
:100DC000DF91CF910C94990641E00E94990681E051
:100DD00090E00895FC0180819181009711F00C94BE
:100DE0009E140895FC0180819181009711F00C946C
:100DF0001F1160E070E0CB010895AF92BF92CF92D7
:100E0000DF92EF92FF920F931F93CF93DF93DC015A
:100E1000CD90DC901197C114D10439F01496CD9186
:100E2000DC918C017601209761F4DF91CF911F91C5
:100E30000F91FF90EF90DF90CF90BF90AF9008950B
:100E400075015701BFEFAB1ABB0AF7018081082E6D
:100E5000000C990B0E945B11892B91F72197CC0D07
:100E6000DD1D8881082E000C990B0E945B11892BD7
:100E700029F0CE15DF0510F02197F3CFAE014F5FBB
:100E80005F4F4E195F09D80115965C934E931497E6
:100E9000CE14DF0420F4B701C6010E94E415D80186
:100EA000ED91FC91119714968D919C91E80FF91F8B
:100EB0001082BBCFFB0101900020E9F73197AF0111
:100EC000461B570BDC01ED91FC910280F381E02D74
:100ED00009948F929F92AF92BF92EF92FF920F93DD
:100EE0001F93CF93DF93CDB7DEB7A1970FB6F894DA
:100EF000DEBF0FBECDBF7C01FA01CB0119A22230AB
:100F000008F42AE08E010F5D1F4F822E912CB12C28
:100F1000A12CBF01A50194010E94DA13F901CA01B5
:100F20006A300CF5605DD8016E938D01232B242B64
:100F3000252B79F790E080E0109721F0BD01C701E3
:100F40000E945A07A1960FB6F894DEBF0FBECDBF20
:100F5000DF91CF911F910F91FF90EF90BF90AF90D5
:100F60009F908F900895695CDECF462F50E070E02F
:100F700060E02AE00C9469074F925F926F927F9233
:100F80008F929F92AF92BF92CF92DF92EF92FF9299
:100F90000F931F93CF936B017C01742EAC019B01C7
:100FA0000E94D5136FE371E0811126C046015701FD
:100FB000E894B7F82FEF3FEF4FE75FE7C501B401C3
:100FC0000E94D51381110CC02FEF3FEF4FE75FE771
:100FD000C501B4010E94641163E471E0181664F065
:100FE0002FEF3FEF4FE75FE4C701B6010E94D01338
:100FF0001816ACF467E471E082E892E0CF911F919B
:101000000F91FF90EF90DF90CF90BF90AF909F90A7
:101010008F907F906F905F904F900C945A072FEFB6
:101020003FEF4FE75FECC701B6010E94641187FDF7
:10103000E1CF20E030E0A901C701B6010E946411B0
:1010400010E000E087FF0AC06DE282E892E00E94B3
:10105000FB038C01F7FAF094F7F8F094C0E060E03D
:1010600070E080E09FE37C1641F020E030E040E259
:1010700051E40E942F13CF5FF6CFA70196010E9483
:10108000C3122B013C010E94A1134B015C012AE019
:10109000BC01A40182E892E00E9469077C01E00E95
:1010A000F11ECC23D1F1C501B4010E9469119B014D
:1010B000AC01C301B2010E94C2124B015C016EE29D
:1010C00082E892E00E94FB03E80EF91EC15028F16D
:1010D00020E030E040E251E4C501B4010E94CA11B1
:1010E0002B013C010E94A1134B01B12CA12C2AE041
:1010F000B501A40182E892E00E946907E80EF91E9A
:10110000C501B4010E9469119B01AC01C301B20188
:101110000E94C2124B015C01D9CFC701CF911F9130
:101120000F91FF90EF90DF90CF90BF90AF909F9086
:101130008F907F906F905F904F9008950C945A0716
:1011400062E080E10E94B00669E771E08EE393E01F
:101150000E949E0863E081E10E94B0060E94AA02FC
:101160000E94A1138EE393E00C94B5071F93CF93D5
:10117000DF93182FD62FC42F62E086E00E94B006BE
:101180006BE471E08EE393E00E949E0863E086E0EA
:101190000E94B0061A3050F465E571E08EE393E0EA
:1011A0000E949E0863E087E00E94B006612F8EE3F4
:1011B00093E00E94B50763E088E00E94B00667E50F
:1011C00071E08EE393E00E949E0863E089E00E9454
:1011D000B006DA3050F465E571E08EE393E00E94EA
:1011E0009E0863E08AE00E94B0066D2F8EE393E0D4
:1011F0000E94B50763E08BE00E94B00667E571E0EE
:101200008EE393E00E949E0863E08CE00E94B006AB
:10121000CA3050F465E571E08EE393E00E949E08C9
:1012200063E08DE00E94B0066C2F8EE393E0DF91C7
:10123000CF911F910C94B5078F929F92AF92BF925E
:10124000CF92DF92EF92FF920E94AA024B015C01C3
:101250000E94A401882309F43FC0809131038B30A0
:1012600030F08D3058F08551823008F449C0C12CDF
:10127000D12C80ECE82E8FE7F82E1EC060912C0355
:1012800070E090E080E00E946B112DEC3CEC4CECA7
:101290005DE30E94CA116B017C0160912B0370E039
:1012A00090E080E00E946B119B01AC01C701B60188
:1012B0000E94C3126B017C01A5019401C501B40118
:1012C0000E94D513811108C0A7019601C701B6017C
:1012D0000E94D513882331F169E571E082E892E03C
:1012E0000E945A0761E771E082E892E0FF90EF9078
:1012F000DF90CF90BF90AF909F908F900C945A0743
:1013000060912B0370912C0376276727762790E056
:1013100080E00E9469112DEC3CEC4CEC5DE30E94F6
:10132000CA11C8CF42E0C501B4010E94BC0764E7FE
:1013300071E082E892E00E949E0842E0C701B60197
:101340000E94BC0764E771E082E892E0FF90EF90B2
:10135000DF90CF90BF90AF909F908F900C949E089D
:10136000CF93DF93DC0114962D913C911597232B9D
:1013700079F0FB01CD91DC9160817181CE010E94F9
:101380000216009729F08C1B9D0BDF91CF910895D9
:101390008FEF9FEFFACFFB0144815581FC0124813F
:1013A00035812417350778F080819181009759F0B5
:1013B000FB01608171816115710529F00E94F415AE
:1013C00021E0892B09F020E0822F08950F931F93CD
:1013D000CF93DF93EC0188819981009759F02A819E
:1013E0003B812617370730F081E0DF91CF911F91C5
:1013F0000F9108958B016F5F7F4F0E942715009713
:1014000059F0998388831B830A832C813D81232B88
:1014100059F7FC011082E8CF80E0E7CFEF92FF920E
:101420000F931F93CF93DF93EC017B018A01BA01E5
:101430000E94E60928813981811114C021153105E6
:1014400019F0C9010E949E14198218821D821C8203
:101450001B821A82CE01DF91CF911F910F91FF90D5
:10146000EF9008951D830C83B701C9010E94ED150B
:10147000F1CFFC0111821082138212821582148234
:10148000FB0101900020E9F73197AF01461B570B94
:101490000C940E0AEF92FF920F931F93CF93DF935A
:1014A00000D0CDB7DEB78C0163E771E00E94390A46
:1014B0000E94790397FD1EC089831A82F801E48097
:1014C000F580FFEFEF1AFF0AB701C8010E94E60995
:1014D000882371F3F8012081318184819581BE01D7
:1014E0006F5F7F4F820F931F0E94ED15F801F58209
:1014F000E482DECFC8010F900F90DF91CF911F9152
:101500000F91FF90EF900895AF92BF92CF92DF922C
:10151000EF92FF920F931F93CF93DF93EC016B0138
:101520005A0179012417350720F48B2D5901E42E37
:10153000F82E63E771E0CE010E94390AD6011496B5
:101540000D911C91A016B10628F5E016F10608F4DD
:101550008701D601ED91FC911197E00FF11FF0800A
:1015600010826D917C916A0D7B1D61157105F1F002
:10157000FB0101900020E9F73197AF01461B570BA3
:10158000CE010E940E0AF60180819181080F191F79
:10159000D801FC92CE01DF91CF911F910F91FF9066
:1015A000EF90DF90CF90BF90AF90089588819981A0
:1015B000009711F00E949E14198218821D821C82CD
:1015C0001B821A82E0CFEF92FF920F931F93CF936B
:1015D000DF9300D000D000D0CDB7DEB78C010E94E1
:1015E000FD0666E771E0CE0101960E94390ABE0150
:1015F0006F5F7F4FC8010E94CB09F82ECE01019684
:101600000E94EA06FF20B1F166E771E0CE01019683
:101610000E94390ABE016F5F7F4FC8010E94B00966
:101620007C01CE0101960E94EA06F80124813581F1
:10163000A701495F5F4FB801CE0101960E94840A5D
:10164000CE0101960E94F20660930001CE01019640
:101650000E94EA0610917802812F26960FB6F89420
:10166000DEBF0FBECDBFDF91CF911F910F91FF90D5
:10167000EF9008956EE771E0CE0101960E94390A5D
:10168000BE016F5F7F4FC8010E94CB09F82ECE01CB
:1016900001960E94EA06FF20F9F26EE771E0CE01A2
:1016A00001960E94390ABE016F5F7F4FC8010E94F8
:1016B000B0097C01CE0101960E94EA06F80124815E
:1016C0003581A701495F5F4FB801CE0101960E94A5
:1016D000840ACE0101960E94F206162F60937802CA
:1016E000CE0101960E94EA06B7CF85ED8093BC003B
:1016F00080914A0290914B02A0914C02B0914D0210
:101700000796A11DB11D23E0B695A79597958795DE
:101710002A95D1F72091BC0024FD03C01092480205
:10172000089540914A0250914B0260914C02709191
:101730004D02452B462B472B69F30097A105B105B8
:1017400041F02AE22A95F1F700C00197A109B109F9
:10175000E1CF809149020C94AE041F920F920FB614
:101760000F9211242F933F938F939F93AF93BF9327
:1017700080917A0290917B02A0917C02B0917D02CF
:101780003091790223E0230F2D3758F50196A11DE2
:10179000B11D2093790280937A0290937B02A093EB
:1017A0007C02B0937D0280917E0290917F02A09195
:1017B0008002B09181020196A11DB11D80937E022D
:1017C00090937F02A0938002B0938102BF91AF916A
:1017D0009F918F913F912F910F900FBE0F901F906F
:1017E000189526E8230F0296A11DB11DD2CF1F9296
:1017F0000F920FB60F9211242F933F934F935F9345
:101800006F937F938F939F93AF93BF93EF93FF93C8
:1018100082E892E00E94D903FF91EF91BF91AF91CE
:101820009F918F917F916F915F914F913F912F91F8
:101830000F900FBE0F901F9018951F920F920FB62A
:101840000F9211242F938F939F93EF93FF93E09127
:101850009202F09193028081E0919802F0919902B6
:1018600082FD1BC0908180919B028F5F8F732091BE
:101870009C02821741F0E0919B02F0E0EE57FD4F91
:10188000958F80939B02FF91EF919F918F912F9164
:101890000F900FBE0F901F9018958081F4CF1F926C
:1018A0000F920FB60F9211242F933F934F935F9394
:1018B0006F937F938F939F93AF93BF93EF93FF9318
:1018C0008091B900887F803609F44AC0F0F58832EB
:1018D00009F4A7C018F5803109F49BC0B8F4882337
:1018E00009F4F9C0883009F494C0FF91EF91BF91D9
:1018F000AF919F918F917F916F915F914F913F91A8
:101900002F910F900FBE0F901F901895883109F4FA
:1019100088C0803251F78093460214C0803409F4A5
:101920009DC040F48033B9F38833F9F680934602C2
:1019300085ECB0C0803509F485C0883509F496C0BF
:10194000883499F60E94750BD0CF883909F48CC081
:1019500038F5883729F050F4883611F0803729F6A9
:1019600083E0809348021092210257C0883809F41E
:101970007BC0803919F0803809F0B7CF80912102FF
:10198000803208F071C0E091210281E08E0F8093D7
:1019900021028091BB00F0E0EF5FFD4F80833DC0EE
:1019A000803B39F0E0F4803A09F479C0883A09F0D4
:1019B0009CCF84E080934802109200021092FF01B5
:1019C000E0917202F091730209958091FF018111FB
:1019D0000FC081E08093FF011092DF0109C0803CBD
:1019E00009F4A6CF883C09F4A3CF883B09F07DCF4A
:1019F000E091000281E08E0F80930002F0E0E1525E
:101A0000FE4F80818093BB00909100028091FF0186
:101A100029C0809123028093BB0085EC8093BC0099
:101A200064CF9091450280914402981758F5E09157
:101A3000450281E08E0F80934502F0E0EC5DFD4FA2
:101A40008081E9CFE091450281E08E0F80934502CD
:101A50008091BB00F0E0EC5DFD4F808390914502EA
:101A6000809144029817C8F285E8D8CFE0914502EA
:101A700081E08E0F809345028091BB00F0E0EC5D29
:101A8000FD4F80838091470281115CCF81E080937C
:101A9000220284EA8093BC001092480226CF85EC93
:101AA0008093BC001092480280912102803230F471
:101AB000E0912102F0E0EF5FFD4F10826091210282
:101AC00070E0E0917002F091710281E092E009957E
:101AD000109221020ACF1092460234CFE2E8F2E0DF
:101AE0001382128288EE93E0A0E0B0E084839583B5
:101AF000A683B78323E131E03183208325EC30E0F6
:101B00003587248724EC30E03787268720EC30E0C7
:101B1000318B208B21EC30E0338B228B22EC30E0B8
:101B2000358B248B26EC30E0378B268B118E128E72
:101B3000138E148EEFE1F3E0138212828483958377
:101B4000A683B78385E291E091838083EEE3F3E09F
:101B50001382128287E391E09183808387E28483FA
:101B600084E1818784E082871386ABE2B3E08BE077
:101B700015968C93159716968C931697E9EBF0E0D3
:101B8000E4911796EC931797E5EAF0E0E491189644
:101B9000EC93189740E85EE360E070E01D964D938B
:101BA0005D936D937C9350970895CF93DF93CDB75A
:101BB000DEB762970FB6F894DEBF0FBECDBF789444
:101BC00084B5826084BD84B5816084BD85B5826042
:101BD00085BD85B5816085BD80916E0081608093F3
:101BE0006E0010928100809181008260809381005C
:101BF000809181008160809381008091800081606C
:101C0000809380008091B10084608093B1008091C6
:101C1000B00081608093B00080917A0084608093EE
:101C20007A0080917A00826080937A0080917A00B5
:101C3000816080937A0080917A00806880937A0036
:101C40001092C100E0919202F091930282E08083B1
:101C5000E0918E02F0918F021082E0919002F0915B
:101C600091028FEC808310929A02E0919602F0919B
:101C7000970286E08083E0919402F0919502808142
:101C800080618083E0919402F09195028081886068
:101C90008083E0919402F091950280818068808336
:101CA000E0919402F091950280818F7D8083109263
:101CB00077021092760210927502109274020E94BE
:101CC000900487E293E0909373028093720288E21B
:101CD00093E090937102809370021092430380917D
:101CE0004803823018F098E09093430380934603B2
:101CF00062E370E080E090E00E9466016091490339
:101D00008EE393E00E94550568EE73E080E090E07A
:101D10000E94660160E38EE393E00E9480068BE4FC
:101D2000E82E86E4F82EC7010197F1F760E38EE311
:101D300093E00E948006C7010197F1F760E38EE30C
:101D400093E00E94800683E592E00197F1F760E25C
:101D50008EE393E00E94800660914303606240E05E
:101D60008EE393E00E94990684E08093440340E070
:101D70006CE08EE393E00E94990640E061E08EE320
:101D800093E00E9499069BE3E92E9FE1F92EC7019B
:101D90000197F1F782E08093450340E066E08EE32F
:101DA00093E00E94990640E062E08EE393E00E9497
:101DB0009906C7010197F1F788E08093490360E035
:101DC0008EE393E00E94550562E0809130030E940B
:101DD00010010E949801605D77408109910960932C
:101DE000340370933503809336039093370387E36E
:101DF00080933D0361E08DE00E94100161E08CE082
:101E00000E94100120E0A22E20E0B22E32E0732EBC
:101E10000E941C0961E771E082E892E00E945A0783
:101E200082E892E00E94B903892B09F49CC1CE019B
:101E30000D960E944A0ACE010D960E94FD0666E8A4
:101E400071E0CE0101960E94390ABE016F5F7F4F9B
:101E5000CE010D960E94CB09F82ECE0101960E946C
:101E6000EA06FF2009F49EC066E871E0CE01019603
:101E70000E94390ABE016F5F7F4FCE010D960E940E
:101E8000B0094C01CE0101960E94EA0665E971E0B5
:101E9000CE0101960E94390ABE016F5F7F4FCE01CD
:101EA0000D960E94B0096C01CE0101960E94EA06CF
:101EB00065EA71E0CE0101960E94390ABE016F5FAA
:101EC0007F4FCE010D960E94B0098C01CE01019684
:101ED0000E94EA066EE771E0CE0101960E94390A7F
:101EE000BE016F5F7F4FCE010D960E94B0097C014D
:101EF000CE0101960E94EA062FE0C20ED11CA40179
:101F0000425F5F4F9601BE01635F7F4FCE01019636
:101F10000E94840ACE0101960E94F206662ECE012E
:101F200001960E94EA06480181E1880E911C940105
:101F3000A601BE01635F7F4FCE0101960E94840A15
:101F4000CE0101960E94F206062FCE0101960E9454
:101F5000EA0627E0E20EF11C9701A401BE01635FCF
:101F60007F4FCE0101960E94840ACE0101960E9405
:101F7000F206162FCE0101960E94EA0629893A89B7
:101F8000A701BE01635F7F4FCE0101960E94840AC4
:101F9000CE0101960E94F20660937802CE0101966E
:101FA0000E94EA066EE771E0CE0101960E94390AAE
:101FB000BE016F5F7F4FCE010D960E94CB09F82EB8
:101FC000CE0101960E94EA06FF2041F16EE771E022
:101FD000CE0101960E94390ABE016F5F7F4FCE018C
:101FE0000D960E94B0097C01CE0101960E94EA067E
:101FF00029893A89A701495F5F4FBE01635F7F4F1F
:10200000CE0101960E94840ACE0101960E94F2063A
:1020100060937802CE0101960E94EA0667EB71E0B8
:10202000CE0101960E94390ABE016F5F7F4FCE013B
:102030000D960E94CB09F82ECE0101960E94EA0669
:10204000FF2061F040E060E080E00E94B6080E945E
:10205000A0080E943F0610E000E0612C66E771E0F6
:10206000CE0101960E94390ABE016F5F7F4FCE01FB
:102070000D960E94CB09F82ECE0101960E94EA0629
:10208000FF20E9F01A8219821C821B821E821D82A7
:102090006D857E856115710531F049895A89CE01BA
:1020A00001960E940E0ACE0101960E94E30A8093D7
:1020B0007802CE0101960E94EA060E943F060E9425
:1020C00098016B017C0180917802813009F047C052
:1020D00082E892E00E94B903892B09F456C0CE0130
:1020E00007960E944A0A1A8219821C821B821E824B
:1020F0001D826F8178856115710531F04B855C8596
:10210000CE0101960E940E0ACE0101960E94E30ABA
:1021100080937802CE0101960E94EA0667EB71E097
:10212000CE0101960E94390ABE016F5F7F4FCE013A
:1021300007960E94CB09982ECE0101960E94EA06CE
:10214000CE0107960E94EA069920F9F040E060E08F
:1021500080E00E94B6080E94A0080E943F06CE01BF
:102160000D960E94EA0668EB7BE080E090E00E941A
:102170006601A114B10409F44BCE0E94C503882363
:1021800009F446CE0E94000043CE80917802882355
:1021900031F30E9498011B012C010E941C09D201FD
:1021A000C1018C199D09AE09BF09883E9340A10564
:1021B000B10508F488CF111140C001113BC0611076
:1021C00003C070927802CBCF6A941BE307E1412FE2
:1021D000602F862D0E94B6080E94A0080E943F062C
:1021E000662D82E892E00E94B50764E771E082E81C
:1021F00092E00E949E08602F82E892E00E94B5075C
:1022000064E771E082E892E00E949E08612F82E814
:1022100092E00E94B50761E771E082E892E00E94D7
:102220005A0760ED77E080E090E00E94660172015D
:10223000610149CF01501BE3CACF1150C8CF1F9392
:10224000FC0199278827BC01E89411911032E9F329
:10225000193010F01E30C8F31B3251F01D3249F412
:10226000689406C00E944611610F711D811D911D69
:10227000119110531A30B0F33EF4909580957095FB
:1022800061957F4F8F4F9F4F1F910895592F482F72
:10229000372F262F660F771F881F991F660F771F0E
:1022A000881F991F620F731F841F951F660F771F6A
:1022B000881F991F089591110C943712803219F0DC
:1022C00089508550C8F708950E94A61108F481E04E
:1022D0000895E89409C097FB3EF490958095709519
:1022E00061957F4F8F4F9F4F9923A9F0F92F96E962
:1022F000BB279395F695879577956795B795F111D7
:10230000F8CFFAF4BB0F11F460FF1BC06F5F7F4F73
:102310008F4F9F4F16C0882311F096E911C0772385
:1023200021F09EE8872F762F05C0662371F096E88E
:10233000862F70E060E02AF09A95660F771F881F5D
:10234000DAF7880F9695879597F90895990F000801
:10235000550FAA0BE0E8FEEF16161706E807F90777
:10236000C0F012161306E407F50798F0621B730B12
:10237000840B950B39F40A2661F0232B242B252B93
:1023800021F408950A2609F4A140A6958FEF811D36
:10239000811D08950E94DD110C9451120E94431278
:1023A00038F00E944A1220F0952311F00C943A1252
:1023B0000C94401211240C9485120E94621270F346
:1023C000959FC1F3950F50E0551F629FF001729FDA
:1023D000BB27F00DB11D639FAA27F00DB11DAA1FE9
:1023E000649F6627B00DA11D661F829F2227B00D36
:1023F000A11D621F739FB00DA11D621F839FA00DC1
:10240000611D221F749F3327A00D611D231F849F10
:10241000600D211D822F762F6A2F11249F57504067
:102420009AF0F1F088234AF0EE0FFF1FBB1F661FE2
:10243000771F881F91505040A9F79E3F510580F0AB
:102440000C943A120C9485125F3FE4F3983ED4F357
:10245000869577956795B795F795E7959F5FC1F74F
:10246000FE2B880F911D9695879597F908959927CA
:102470008827089597F99F6780E870E060E00895E5
:102480009FEF80EC089500240A941616170618068C
:102490000906089500240A94121613061406050668
:1024A0000895092E0394000C11F4882352F0BB0FF9
:1024B00040F4BF2B11F460FF04C06F5F7F4F8F4F5C
:1024C0009F4F089557FD9058440F551F59F05F3F97
:1024D00071F04795880F97FB991F61F09F3F79F046
:1024E00087950895121613061406551FF2CF4695C8
:1024F000F1DF08C0161617061806991FF1CF86954A
:102500007105610508940895E894BB27662777272D
:10251000CB0197F908952F923F924F925F926F925D
:102520007F928F929F92AF92BF92CF92DF92EF9263
:10253000FF920F931F93CF93DF93CDB7DEB7CA1BE4
:10254000DB0B0FB6F894DEBF0FBECDBF09942A880F
:10255000398848885F846E847D848C849B84AA84B7
:10256000B984C884DF80EE80FD800C811B81AA8144
:10257000B981CE0FD11D0FB6F894DEBF0FBECDBF0F
:10258000ED0108955058BB27AA270E94DA120C9437
:1025900051120E94431238F00E944A1220F039F47E
:1025A0009F3F19F426F40C9440120EF4E095E7FBDB
:1025B0000C943A12E92F0E94621258F3BA1762077C
:1025C00073078407950720F079F4A6F50C9484121C
:1025D0000EF4E0950B2EBA2FA02D0B01B90190013E
:1025E0000C01CA01A0011124FF27591B99F0593F82
:1025F00050F4503E68F11A16F040A22F232F342FCA
:102600004427585FF3CF469537952795A795F04017
:102610005395C9F77EF41F16BA0B620B730B840B2C
:10262000BAF09150A1F0FF0FBB1F661F771F881FE4
:10263000C2F70EC0BA0F621F731F841F48F487953C
:1026400077956795B795F7959E3F08F0B0CF93952E
:10265000880F08F09927EE0F9795879508950E94A7
:1026600043130C9451120E944A1258F00E944312D4
:1026700040F029F45F3F29F00C943A1251110C9468
:1026800085120C9440120E94621268F39923B1F3F0
:10269000552391F3951B550BBB27AA276217730788
:1026A000840738F09F5F5F4F220F331F441FAA1F1C
:1026B000A9F335D00E2E3AF0E0E832D091505040D8
:1026C000E695001CCAF72BD0FE2F29D0660F771F86
:1026D000881FBB1F261737074807AB07B0E809F06C
:1026E000BB0B802DBF01FF2793585F4F3AF09E3FF1
:1026F000510578F00C943A120C9485125F3FE4F384
:10270000983ED4F3869577956795B795F7959F5F33
:10271000C9F7880F911D9695879597F90895E1E07F
:10272000660F771F881FBB1F621773078407BA07DE
:1027300020F0621B730B840BBA0BEE1F88F7E09539
:1027400008950E946A1288F09F5798F0B92F992730
:10275000B751B0F0E1F0660F771F881F991F1AF08C
:10276000BA95C9F714C0B13091F00E948412B1E05B
:1027700008950C948412672F782F8827B85F39F05A
:10278000B93FCCF3869577956795B395D9F73EF425
:1027900090958095709561957F4F8F4F9F4F0895CD
:1027A0000E94A61108F48FEF08950E94A611880BCD
:1027B000990B0895A1E21A2EAA1BBB1BFD010DC0A7
:1027C000AA1FBB1FEE1FFF1FA217B307E407F507E1
:1027D00020F0A21BB30BE40BF50B661F771F881FBD
:1027E000991F1A9469F760957095809590959B0153
:1027F000AC01BD01CF010895EE0FFF1F0590F491CC
:10280000E02D09940F931F93CF93DF9382309105AE
:1028100010F482E090E0E0914C03F0914D0330E041
:1028200020E0B0E0A0E0309799F42115310509F4DB
:102830004AC0281B390B24303105D8F58A819B8189
:102840006115710589F1FB0193838283FE0111C03B
:10285000408151810281138148175907E0F04817E0
:10286000590799F4109761F012960C9312971396EA
:102870001C933296CF01DF91CF911F910F91089554
:1028800000934C0310934D03F4CF2115310551F003
:102890004217530738F0A901DB019A01BD01DF019E
:1028A000F801C1CFEF01F9CF90934D0380934C0312
:1028B000CDCFFE01E20FF31F819391932250310996
:1028C00039832883D7CF20914A0330914B03232BA0
:1028D00041F4209103013091040130934B03209384
:1028E0004A0320910101309102012115310541F483
:1028F0002DB73EB74091050150910601241B350BC1
:10290000E0914A03F0914B03E217F307A0F42E1B6A
:102910003F0B2817390778F0AC014E5F5F4F241743
:10292000350748F04E0F5F1F50934B0340934A0307
:10293000819391939FCFF0E0E0E09CCFCF93DF9322
:102940000097E9F0FC01329713821282A0914C03A8
:10295000B0914D03ED0130E020E01097A1F420810B
:102960003181820F931F20914A0330914B03281726
:10297000390709F061C0F0934B03E0934A03DF91FC
:10298000CF910895EA01CE17DF07E8F54A815B8110
:102990009E0141155105B1F7E901FB83EA83499195
:1029A0005991C40FD51FEC17FD0761F48081918107
:1029B0000296840F951FE901998388838281938110
:1029C0009B838A83F0E0E0E012968D919C911397AF
:1029D0000097B9F52D913C911197CD010296820F88
:1029E000931F20914A0330914B032817390739F67A
:1029F000309751F510924D0310924C03B0934B0356
:102A0000A0934A03BCCFD383C28340815181840FFA
:102A1000951FC817D90761F44E5F5F4F8881998170
:102A2000480F591F518340838A819B8193838283FE
:102A30002115310509F0B0CFF0934D03E0934C031D
:102A40009ECFFD01DC01C0CF13821282D7CFB0E050
:102A5000A0E0EDE2F5E10C948D128C01009751F4A9
:102A6000CB010E9402148C01C801CDB7DEB7E0E1B2
:102A70000C94A912FC01E60FF71F9C0122503109AA
:102A8000E217F30708F49DC0D901CD91DC911197AD
:102A9000C617D70798F0C530D10530F3CE0104979B
:102AA0008617970708F3C61BD70B2297C193D193BC
:102AB0006D937C93CF010E949E14D6CF5B01AC1A1C
:102AC000BD0A4C018C0E9D1EA0914C03B0914D038C
:102AD000512C412CF12CE12C109731F580914A03B7
:102AE00090914B038815990509F05CC0461657066E
:102AF00008F058C08091010190910201009741F4C3
:102B00008DB79EB74091050150910601841B950B2E
:102B1000E817F90708F055C0F0934B03E0934A0318
:102B2000F90171836083A0CF8D919C9111971296CA
:102B30006C90129713967C901397A815B90559F5C8
:102B40006C0142E0C40ED11CCA14DB0420F1AC01BC
:102B50004A195B09DA011296159780F06282738236
:102B600051834083D9016D937C93E114F10471F09A
:102B7000D7011396FC93EE93129776CF22968C0F83
:102B80009D1FF90191838083F301EFCFF0934D03F3
:102B9000E0934C0369CF4816590608F42C017D01D7
:102BA000D3019ACFCB010E9402147C01009749F017
:102BB000AE01B8010E94E415C8010E949E1487016D
:102BC00053CF10E000E050CFFB01DC0102C00190C8
:102BD0000D9241505040D8F70895FB01DC0101905F
:102BE0000D920020E1F70895FB01DC0141505040B7
:102BF00030F08D910190801919F40020B9F7881BED
:102C0000990B0895FB0151915523A9F0BF01DC01F7
:102C10004D9145174111E1F759F4CD010190002084
:102C200049F04D9140154111C9F3FB014111EFCF1E
:0C2C300081E090E001970895F894FFCF38
:102C3C001400004E038000000040001400540000FB
:102C4C00000000FB03290356034804B9036503ABDA
:102C5C0003000000002605F9043C06CF04F204DF53
:102C6C0004D00400000000E40629033C0668046E4E
:102C7C00616E00696E66006F76660054696D65481A
:102C8C00617463680030003A004661696C656420C9
:102C9C00746F20726561642066726F6D20444854B5
:102CAC00000D0A002C0073657454656D7000707211
:102CBC0053746174650064617954696D65546F482F
:102CCC006174636800686F757254696D65546F4800
:102CDC0061746368006D696E75746554696D6554D3
:0E2CEC006F4861746368005265736574000080
:00000001FF
